:10000000FDC0000020C100001EC100001CC1000096
:100010001AC1000018C1000016C1000014C1000080
:1000200012C1000010C100000EC100000CC1000090
:100030000AC100002BC4000006C1000004C100007A
:1000400002C1000000C10000FEC00000FCC00000B2
:10005000FAC00000F8C00000F6C00000F4C00000C4
:10006000F2C00000F0C00000EEC00000ECC00000D4
:10007000EAC00000E8C00000E6C00000E4C00000E4
:10008000E2C00000E0C00000DEC00000DCC00000F4
:10009000DAC00000D8C00000D6C00000D4C0000004
:1000A000D2C00000D0C00000CEC00000CCC0000014
:1000B000CAC00000C8C00000C6C00000C4C0000024
:1000C000C2C00000C0C00000BEC00000BCC0000034
:1000D000BAC00000B8C00000B6C00000B4C0000044
:1000E000B2C00000B0C00000AEC00000ACC0000054
:1000F000AAC00000A8C00000A6C00000A4C0000064
:10010000A2C00000A0C000009EC000009CC0000073
:100110009AC0000098C0000096C0000094C0000083
:1001200092C0000090C000008EC000008CC0000093
:100130008AC0000088C0000086C0000084C00000A3
:1001400082C0000080C000007EC000007CC00000B3
:100150007AC0000078C0000076C0000074C00000C3
:10016000E7C4000019C500006EC000006CC00000AC
:100170006AC0000068C0000066C0000064C00000E3
:1001800062C0000060C000005EC000005CC00000F3
:100190005AC0000058C0000056C0000054C0000003
:1001A00052C0000050C000004EC000004CC0000013
:1001B0004AC0000048C0000046C0000044C0000023
:1001C00042C0000040C000003EC000003CC0000033
:1001D0003AC0000038C0000036C0000034C0000043
:1001E00032C0000030C000002EC000002CC0000053
:1001F0002AC0000028C0000026C0000011241FBE35
:10020000CFEFCDBFDFE3DEBF00E00CBF18BE19BEED
:100210001ABE1BBE10E2A0E0B0E2E0E9F6E100E0A9
:100220000BBF02C007900D92A032B107D9F71BBED9
:1002300022E2A0E2B0E201C01D92A635B207E1F7CA
:10024000DFD40C94460BDCCE0F93CF93DF931F9239
:10025000CDB7DEB79E012F5F3F4F41E065E788E6EF
:10026000ADD201E020E047E06BE688E6DDD200E0B9
:1002700023E048E16BE188E6D7D223E048E16CE176
:1002800088E6D2D226E040E46BE688E6CDD201E0F3
:1002900021E042E067E388E6C7D220E045E16AE07A
:1002A0008CE0C2D281E00F90DF91CF910F91089541
:1002B000EF92FF920F931F93CF93DF937C018B01FB
:1002C000EA0120E230E246E06BE388E677D28091F3
:1002D000202090E0982F882720912120822BF70161
:1002E000808391838091222090E0982F882720910D
:1002F0002320822BF801808391838091242090E039
:10030000982F882720912520822B88839983DF913D
:10031000CF911F910F91FF90EF900895EF92FF9270
:100320000F931F93CF93DF937C018B01EA0120E2AF
:1003300030E246E063E488E641D28091202090E0FC
:10034000982F882720912120822BF7018083918389
:100350008091222090E0982F882720912320822BC3
:10036000F801808391838091242090E0982F882742
:1003700020912520822B88839983DF91CF911F9133
:100380000F91FF90EF900895EF92FF920F931F93BC
:10039000CF93DF937C018B01EA0120E230E241E060
:1003A00062E08CE00BD280912020882331F120E2A2
:1003B00030E246E063E08CE001D28091202090E0C2
:1003C000982F882720912120822BF7018083918309
:1003D0008091222090E0982F882720912320822B43
:1003E000F801808391838091242090E0982F8827C2
:1003F00020912520822B8883998301E020E045E12C
:100400006AE08CE011D2DF91CF911F910F91FF90A4
:10041000EF900895E0E5F0E08281807F8260828342
:10042000808188608083808182608083818183FF76
:10043000FDCFE0E5F0E0818181FFFDCF81E02DD0AF
:1004400081E021D0E0E5F0E08681897F82608683CB
:10045000E0E6F0E080818160808308950F93CF9380
:10046000DF931F92CDB7DEB72FB72983F8941BBE59
:10047000FC0108ED04BF608389818FBF0F90DF917D
:10048000CF910F910895E0E5F0E09081282F20951D
:10049000922390839081892308951F93CF93DF93B4
:1004A000182FC0E4D0E06881687F682B80E490E07A
:1004B000D5DF88818123DF91CF911F910895FC01C1
:1004C000608371834863DB0111964C93A081B181F5
:1004D00015962C930190F081E02D81E0848308959E
:1004E0000F93CF93DF93FC01293098F5093098F5ED
:1004F0008789811132C081E0878B108E660F6283FD
:10050000222369F0A42FB52F40E050E08D91EF0138
:10051000C40FD51F8B834F5F5F4F4217B8F3238BF8
:10052000048B158A168A8389882341F082818E7F05
:100530000190F081E02D868381E012C084898823B8
:1005400071F0828181600190F081E02D868381E0ED
:1005500007C080E005C080E003C080E001C081E00A
:10056000DF91CF910F9108950F9300E0B9DF0F91C4
:100570000895FC01A081B18114968C91149782FF9B
:1005800003C094E0908F02C093E0908F886014962F
:100590008C93178A0895CF93DF93FC019389248964
:1005A000A081B18114968C91149784FF07C083E0D9
:1005B00013968C9385E0808F178A1CC085898917D4
:1005C00058F48589EF01C80FD11D8B8117968C9344
:1005D00085898F5F858B0EC08689821728F482817A
:1005E000816016968C9306C083E013968C9381E00D
:1005F000808F178ADF91CF910895FC01868988301A
:1006000070F4A081B18117968C919689DF01A90FB2
:10061000B11D1B968C9386898F5F868B08C0A08145
:10062000B18183E013968C9382E0808F178A94893E
:100630008689891730F40190F081E02D82E0838370
:100640000895A081B18187E013968C9381E0808F1B
:10065000178A0895DC01ED91FC912481322F3C70C2
:1006600011F087CF089526FF02C095CF0895222369
:1006700014F4C3CF089526E0FC01208F178A089553
:10068000FC01608371834283EC5FFD4F10823197E0
:10069000108233961082319710820895FC01EB5F2F
:1006A000FD4F2081319690812F5F81E0291301C099
:1006B00080E00895CF93DF93FC01DC01AB5FBD4F79
:1006C0002C9111969C912F5F81E0291301C080E04D
:1006D0008823B1F0DF01AB5FBD4F9C91EF01C90FE3
:1006E000D11DCD5FDE4F68839F5F9C93A081B18158
:1006F00013969C9113979C7F2281922B13969C9327
:10070000DF91CF910895FC01ED5FFD4F20812F5FB8
:1007100031963081DC01ED91FC91119740812317D6
:1007200059F0FC01ED5FFD4F3081A30FB11D139611
:100730004C93208381E0089580E00895CF93DF9368
:10074000FC01EA5FFD4F208131973081321307C0F1
:10075000DC01ED91FC9183818C7F838311C0FC01CE
:10076000EA5FFD4F2081DC01A20FB11DAD5FBE4FDE
:100770002C91EC01A881B9812C9380818F5F8083BB
:10078000DF91CF910895E0E5F0E08081846080837F
:10079000818182FFFDCFE0E0F4E08FEF9FEF828761
:1007A0009387108285E0E0E4F0E08383E0E0F4E00A
:1007B0008181817081838111FBCF0895EF92FF9237
:1007C0000F931F93CF93DF931F92CDB7DEB769834B
:1007D000142F7901042F21E0AE014F5F5F4F682F86
:1007E00087E392E27DDEEEE4F2E280818111FDCFCB
:1007F000412F50E062E472E2C701A0D481E00F9083
:10080000DF91CF911F910F91FF90EF900895242FCA
:10081000AB01682F87E392E2A7DEEEE4F2E280818B
:100820008111FDCF81E00895DF92EF92FF920F9347
:100830001F93CF93DF931F921F92CDB7DEB7F82E91
:10084000162FD42EE22E9E012E5F3F4F41E0B6DFE1
:100850001983D0948A81D82210E0980102C0220F17
:10086000331FEA94E2F72D292A8342E0BE016F5F2D
:100870007F4F8F2DCCDF8A810F900F90DF91CF912A
:100880001F910F91FF90EF90DF9008951F920F92AC
:100890000FB60F92112408B60F9218BE09B60F9228
:1008A00019BE0BB60F921BBE2F933F934F935F93CE
:1008B0006F937F938F939F93AF93BF93EF93FF9328
:1008C00087E392E2C7DEFF91EF91BF91AF919F91D5
:1008D0008F917F916F915F914F913F912F910F90E9
:1008E0000BBE0F9009BE0F9008BE0F900FBE0F9069
:1008F0001F901895CF93C82F80E390E2CFDE882316
:1009000031F06C2F80E390E2D5DE90E002C080E011
:1009100090E0CF9108954F925F926F927F928F9265
:100920009F92AF92BF92CF92DF92EF92FF920F937E
:100930001F9349015A014E2D417020E130E07901A9
:1009400002C0F594E7944A95E2F700230CF039C011
:10095000BBD22B013C01B7017727882777FD809513
:10096000982FB4D26B017C01C501B401ADD29B01BB
:10097000AC01C701B60136D39B01AC01C301B20182
:100980000FD220E030E040E85FE3A5D16B017C01AD
:10099000112701950CF4109561E070E002C0660F1C
:1009A000771F0A95E2F7882777FD8095982F8ED2DA
:1009B0009B01AC01C701B60115D377D359D2CB0146
:1009C00034C082D22B013C01B7017727882777FDFD
:1009D0008095982F7BD26B017C01C501B40174D244
:1009E0009B01AC01C701B601FDD29B01AC01C30163
:1009F000B201D6D14B015C0161E070E002C0660F2C
:100A0000771F0A95E2F7882777FD8095982F5ED2A9
:100A10009B01AC01C501B401C3D120E030E040E846
:100A20005FE359D142D324D2CB011F910F91FF90A4
:100A3000EF90DF90CF90BF90AF909F908F907F907E
:100A40006F905F904F9008954F925F926F927F9258
:100A50008F929F92AF92BF92EF920F93CF93DF93BB
:100A60002B013C0149015A01D02FC9EFED2E0C2F6B
:100A7000A5019401C301B2014EDF8115904118F028
:100A8000CF5FC83099F78C2FDF91CF910F91EF9006
:100A9000BF90AF909F908F907F906F905F904F909E
:100AA00008954F925F926F927F928F929F92AF9232
:100AB000BF92EF920F93CF934B015C0129013A0152
:100AC000E02EE0E6F6E088E0818384E08283C501E1
:100AD000B401BADFC82F082FA3019201C501B401E8
:100AE0001ADFB82EE92E41E060EA79E080E390E277
:100AF000C7DDE0EAF9E083E0858384818061848357
:100B000084818860848383818F7C80618383B682C3
:100B1000C295C07FEC2AE782CF910F91EF90BF90F2
:100B2000AF909F908F907F906F905F904F900895BF
:100B30001F920F920FB60F92112408B60F9218BE93
:100B400009B60F9219BE0BB60F921BBE2F933F939F
:100B50004F935F936F937F938F939F93AF93BF93C5
:100B6000EF93FF9380E390E2CEDDFF91EF91BF9191
:100B7000AF919F918F917F916F915F914F913F9135
:100B80002F910F900BBE0F9009BE0F9008BE0F90D3
:100B90000FBE0F901F9018951F920F920FB60F92D5
:100BA000112408B60F9218BE09B60F9219BE0BB6E3
:100BB0000F921BBE2F933F934F935F936F937F933F
:100BC0008F939F93AF93BF93EF93FF9380E390E254
:100BD000B5DDFF91EF91BF91AF919F918F917F9183
:100BE0006F915F914F913F912F910F900BBE0F909E
:100BF00009BE0F9008BE0F900FBE0F901F90189562
:100C0000CF93DF93CDB7DEB76297CDBFDEBF02DCF7
:100C100000E020E835E240E050E060E078E488EE73
:100C200091E03FDF86E090E280935222909353223E
:100C300023E240E460E874E087E392E240DCA3DD75
:100C400081E0E0E8F6E08183E0EAF0E082837894F6
:100C5000FBDA04E110E20F2EF0E8EF2EF6E0FF2EB3
:100C6000F02DDD24D394AE014B5F5F4FBE016D5F6D
:100C70007F4FCE0101961CDBAE01455F5F4FBE0189
:100C8000675F7F4FCE01079649DBAE014F5E5F4F36
:100C9000BE01615F7F4FCE010D9676DB8E818F9313
:100CA0008D818F938C818F938B818F938A818F938A
:100CB00089818F931F930F934AD2F701D782FFEF59
:100CC00023EF81E0F15020408040E1F700C00000B8
:100CD000CDBFDEBFC8CF5058BB27AA270ED048C112
:100CE00039D130F03ED120F031F49F3F11F41EF4A1
:100CF0002EC10EF4E095E7FB24C1E92F4AD180F321
:100D0000BA17620773078407950718F071F49EF508
:100D100062C10EF4E0950B2EBA2FA02D0B01B90184
:100D200090010C01CA01A0011124FF27591B99F061
:100D3000593F50F4503E68F11A16F040A22F232F6D
:100D4000342F4427585FF3CF469537952795A795BD
:100D5000F0405395C9F77EF41F16BA0B620B730B64
:100D6000840BBAF09150A1F0FF0FBB1F661F771FD5
:100D7000881FC2F70EC0BA0F621F731F841F48F48A
:100D8000879577956795B795F7959E3F08F0B3CF10
:100D90009395880F08F09927EE0F979587950895FA
:100DA0000CD0E6C0DED040F0D5D030F021F45F3F6B
:100DB00019F0C7C0511110C1CAC0EBD098F39923E4
:100DC000C9F35523B1F3951B550BBB27AA2762170F
:100DD0007307840738F09F5F5F4F220F331F441F54
:100DE000AA1FA9F333D00E2E3AF0E0E830D091508C
:100DF0005040E695001CCAF729D0FE2F27D0660F79
:100E0000771F881FBB1F261737074807AB07B0E8B7
:100E100009F0BB0B802DBF01FF2793585F4F2AF0CD
:100E20009E3F510568F08DC0D7C05F3FECF3983E00
:100E3000DCF3869577956795B795F7959F5FC9F72A
:100E4000880F911D9695879597F90895E1E0660FB3
:100E5000771F881FBB1F621773078407BA0720F02C
:100E6000621B730B840BBA0BEE1F88F7E095089595
:100E700098D088F09F5790F0B92F9927B751A0F0DC
:100E8000D1F0660F771F881F991F1AF0BA95C9F71E
:100E900012C0B13081F09FD0B1E008959CC0672F9F
:100EA000782F8827B85F39F0B93FCCF386957795CE
:100EB0006795B395D9F73EF49095809570956195B7
:100EC0007F4F8F4F9F4F0895E89409C097FB3EF4E2
:100ED00090958095709561957F4F8F4F9F4F992387
:100EE000A9F0F92F96E9BB279395F6958795779505
:100EF0006795B795F111F8CFFAF4BB0F11F460FFC5
:100F00001BC06F5F7F4F8F4F9F4F16C0882311F01C
:100F100096E911C0772321F09EE8872F762F05C030
:100F2000662371F096E8862F70E060E02AF09A95CB
:100F3000660F771F881FDAF7880F9695879597F9C0
:100F4000089597F99F6780E870E060E008959FEF4B
:100F500080EC089500240A94161617061806090650
:100F6000089500240A94121613061406050608951F
:100F7000092E0394000C11F4882352F0BB0F40F4A7
:100F8000BF2B11F460FF04C06F5F7F4F8F4F9F4FE7
:100F9000089557FD9058440F551F59F05F3F71F069
:100FA0004795880F97FB991F61F09F3F79F08795D0
:100FB0000895121613061406551FF2CF4695F1DF59
:100FC00008C0161617061806991FF1CF86957105E9
:100FD000610508940895E894BB2766277727CB011D
:100FE00097F908950BD0C4CFB5DF28F0BADF18F019
:100FF000952309F0A6CFABCF1124EECFCADFA0F323
:10100000959FD1F3950F50E0551F629FF001729F9D
:10101000BB27F00DB11D639FAA27F00DB11DAA1FBC
:10102000649F6627B00DA11D661F829F2227B00D09
:10103000A11D621F739FB00DA11D621F839FA00D94
:10104000611D221F749F3327A00D611D231F849FE4
:10105000600D211D822F762F6A2F11249F5750403B
:101060008AF0E1F088234AF0EE0FFF1FBB1F661FD6
:10107000771F881F91505040A9F79E3F510570F08F
:1010800060CFAACF5F3FECF3983EDCF3869577956F
:101090006795B795F795E7959F5FC1F7FE2B880F8A
:1010A000911D9695879597F908957BDFE0F09E371F
:1010B000D8F09639B8F49E3848F4672F782F8827EF
:1010C000985FF9CF86957795679593959539D0F385
:1010D000B62FB1706B0F711D811D20F48795779528
:1010E0006795939502C01CC077CF882371F477234E
:1010F00021F09850872B762F07C0662311F499278B
:101100000DC09051862B70E060E02AF09A95660F32
:10111000771F881FDAF7880F9695879597F90895B6
:101120009F3F31F0915020F4879577956795B7955B
:10113000880F911D9695879597F90895FB01DC011D
:1011400002C001900D9241505040D8F70895CF93BE
:10115000DF93CDB7DEB7FE01369661917191AF0195
:10116000809152229091532203D0DF91CF91089524
:101170002F923F924F925F926F927F928F929F92A7
:10118000AF92BF92CF92DF92EF92FF920F931F9395
:10119000CF93DF93CDB7DEB72C97CDBFDEBF7C01F9
:1011A0006B018A01FC0116821782838181FFB0C125
:1011B000CE0101964C01F7019381F60193FD8591D3
:1011C00093FF81916F01882309F49EC1853239F420
:1011D00093FD859193FF81916F01853221F4B701D1
:1011E00090E0C4D1E8CF512C312C20E02032A0F483
:1011F0008B3269F030F4803259F0833269F4206127
:101200002CC08D3239F0803339F4216026C0226041
:10121000246023C0286021C027FD27C030ED380F8F
:101220003A3078F426FF06C0FAE05F9E300D1124B4
:10123000532E13C08AE0389E300D1124332E2062C5
:101240000CC08E3221F426FD5FC1206406C08C36AE
:1012500011F4206802C0883641F4F60193FD8591AF
:1012600093FF81916F018111C1CF982F9F7D95547C
:10127000933028F40C5F1F4FFFE3F9830DC08336D2
:1012800031F0833771F0833509F057C021C0F80180
:10129000808189830E5F1F4F44244394512C540155
:1012A00014C03801F2E06F0E711CF801A080B1800B
:1012B00026FF03C0652D70E002C06FEF7FEFC50110
:1012C0002C8749D12C0183012C852F77222E16C023
:1012D0003801F2E06F0E711CF801A080B18026FF8A
:1012E00003C0652D70E002C06FEF7FEFC5012C8752
:1012F00027D12C012C852068222E830123FC19C0C4
:10130000832D90E048165906A0F4B70180E290E0E2
:101310002DD13A94F5CFF50127FC859127FE8191D7
:101320005F01B70190E022D131103A94F1E04F1AF9
:1013300051084114510479F7DEC0843611F0893622
:1013400031F5F80127FF07C06081718182819381A7
:101350000C5F1F4F08C060817181882777FD8095E1
:10136000982F0E5F1F4F2F76B22E97FF09C09095D2
:101370008095709561957F4F8F4F9F4F2068B22E5B
:101380002AE030E0A40124D1A82EA81843C0853754
:1013900029F42F7EB22E2AE030E025C0F22FF97F0B
:1013A000BF2E8F36C1F018F4883579F0ADC0803784
:1013B00019F0883721F0A8C02F2F2061B22EB4FE7B
:1013C0000DC08B2D8460B82E09C024FF0AC09F2F4A
:1013D0009660B92E06C028E030E005C020E130E07C
:1013E00002C020E132E0F801B7FE07C060817181E0
:1013F000828193810C5F1F4F06C06081718180E004
:1014000090E00E5F1F4FA401E3D0A82EA818FB2D7B
:10141000FF77BF2EB6FE0BC02B2D2E7FA51450F4E8
:10142000B4FE0AC0B2FC08C02B2D2E7E05C07A2C5B
:101430002B2D03C07A2C01C0752C24FF0DC0FE019A
:10144000EA0DF11D8081803311F4297E09C022FF4D
:1014500006C07394739404C0822F867809F0739445
:1014600023FD12C020FF06C05A2C731418F4530C2D
:101470005718732C731460F4B70180E290E02C8746
:1014800075D073942C85F6CF731410F4371801C0FF
:10149000312C24FF11C0B70180E390E02C8766D087
:1014A0002C8522FF16C021FF03C088E590E002C012
:1014B00088E790E0B7010CC0822F867851F021FDBB
:1014C00002C080E201C08BE227FD8DE2B70190E00F
:1014D0004DD0A51430F4B70180E390E047D05A9482
:1014E000F8CFAA94F401EA0DF11D8081B70190E0D4
:1014F0003DD0A110F6CF332009F45DCEB70180E2D4
:1015000090E034D03A94F7CFF7018681978102C0FA
:101510008FEF9FEF2C96CDBFDEBFDF91CF911F9154
:101520000F91FF90EF90DF90CF90BF90AF909F9082
:101530008F907F906F905F904F903F902F90089585
:10154000FC010590615070400110D8F7809590958E
:101550008E0F9F1F0895FC01615070400190011093
:10156000D8F7809590958E0F9F1F08950F931F9326
:10157000CF93DF93182F092FEB018B8181FD03C0DF
:101580008FEF9FEF20C082FF10C04E815F812C81C2
:101590003D81421753077CF4E881F9819F012F5F59
:1015A0003F4F28833983108306C0E885F985812F52
:1015B0001995892B29F72E813F812F5F3F4F2E836D
:1015C0003F83812F902FDF91CF911F910F9108952D
:1015D000FA01AA27283051F1203181F1E8946F9364
:1015E0006E7F6E5F7F4F8F4F9F4FAF4FB1E03ED00A
:1015F000B4E03CD0670F781F891F9A1FA11D680FA8
:10160000791F8A1F911DA11D6A0F711D811D911DDA
:10161000A11D20D009F468943F912AE0269F11244F
:101620003019305D3193DEF6CF010895462F4770B3
:10163000405D4193B3E00FD0C9F7F6CF462F4F700E
:10164000405D4A3318F0495D31FD4052419302D06C
:10165000A9F7EACFB4E0A695979587957795679512
:10166000BA95C9F700976105710508959B01AC0112
:101670000A2E06945795479537952795BA95C9F739
:10168000620F731F841F951FA01D0895F894FFCF4C
:1016900000005622200000000002000000007A0432
:1016A0000000000025642C25642C25640D0A000030
:00000001FF
